{
  "contractName": "ICOcontract",
  "abi": [
    {
      "constant": true,
      "inputs": [],
      "name": "hasClosed",
      "outputs": [
        {
          "name": "",
          "type": "bool"
        }
      ],
      "payable": false,
      "stateMutability": "view",
      "type": "function",
      "signature": "0x1515bc2b"
    },
    {
      "constant": true,
      "inputs": [],
      "name": "rate",
      "outputs": [
        {
          "name": "",
          "type": "uint256"
        }
      ],
      "payable": false,
      "stateMutability": "view",
      "type": "function",
      "signature": "0x2c4e722e"
    },
    {
      "constant": true,
      "inputs": [],
      "name": "cap",
      "outputs": [
        {
          "name": "",
          "type": "uint256"
        }
      ],
      "payable": false,
      "stateMutability": "view",
      "type": "function",
      "signature": "0x355274ea"
    },
    {
      "constant": true,
      "inputs": [],
      "name": "goal",
      "outputs": [
        {
          "name": "",
          "type": "uint256"
        }
      ],
      "payable": false,
      "stateMutability": "view",
      "type": "function",
      "signature": "0x40193883"
    },
    {
      "constant": true,
      "inputs": [],
      "name": "weiRaised",
      "outputs": [
        {
          "name": "",
          "type": "uint256"
        }
      ],
      "payable": false,
      "stateMutability": "view",
      "type": "function",
      "signature": "0x4042b66f"
    },
    {
      "constant": true,
      "inputs": [],
      "name": "isOpen",
      "outputs": [
        {
          "name": "",
          "type": "bool"
        }
      ],
      "payable": false,
      "stateMutability": "view",
      "type": "function",
      "signature": "0x47535d7b"
    },
    {
      "constant": true,
      "inputs": [],
      "name": "closingTime",
      "outputs": [
        {
          "name": "",
          "type": "uint256"
        }
      ],
      "payable": false,
      "stateMutability": "view",
      "type": "function",
      "signature": "0x4b6753bc"
    },
    {
      "constant": false,
      "inputs": [],
      "name": "finalize",
      "outputs": [],
      "payable": false,
      "stateMutability": "nonpayable",
      "type": "function",
      "signature": "0x4bb278f3"
    },
    {
      "constant": true,
      "inputs": [],
      "name": "capReached",
      "outputs": [
        {
          "name": "",
          "type": "bool"
        }
      ],
      "payable": false,
      "stateMutability": "view",
      "type": "function",
      "signature": "0x4f935945"
    },
    {
      "constant": true,
      "inputs": [],
      "name": "wallet",
      "outputs": [
        {
          "name": "",
          "type": "address"
        }
      ],
      "payable": false,
      "stateMutability": "view",
      "type": "function",
      "signature": "0x521eb273"
    },
    {
      "constant": true,
      "inputs": [],
      "name": "goalReached",
      "outputs": [
        {
          "name": "",
          "type": "bool"
        }
      ],
      "payable": false,
      "stateMutability": "view",
      "type": "function",
      "signature": "0x7d3d6522"
    },
    {
      "constant": true,
      "inputs": [],
      "name": "finalized",
      "outputs": [
        {
          "name": "",
          "type": "bool"
        }
      ],
      "payable": false,
      "stateMutability": "view",
      "type": "function",
      "signature": "0xb3f05b97"
    },
    {
      "constant": true,
      "inputs": [],
      "name": "openingTime",
      "outputs": [
        {
          "name": "",
          "type": "uint256"
        }
      ],
      "payable": false,
      "stateMutability": "view",
      "type": "function",
      "signature": "0xb7a8807c"
    },
    {
      "constant": false,
      "inputs": [
        {
          "name": "refundee",
          "type": "address"
        }
      ],
      "name": "claimRefund",
      "outputs": [],
      "payable": false,
      "stateMutability": "nonpayable",
      "type": "function",
      "signature": "0xbffa55d5"
    },
    {
      "constant": false,
      "inputs": [
        {
          "name": "beneficiary",
          "type": "address"
        }
      ],
      "name": "buyTokens",
      "outputs": [],
      "payable": true,
      "stateMutability": "payable",
      "type": "function",
      "signature": "0xec8ac4d8"
    },
    {
      "constant": true,
      "inputs": [],
      "name": "token",
      "outputs": [
        {
          "name": "",
          "type": "address"
        }
      ],
      "payable": false,
      "stateMutability": "view",
      "type": "function",
      "signature": "0xfc0c546a"
    },
    {
      "inputs": [
        {
          "name": "_rate",
          "type": "uint256"
        },
        {
          "name": "_wallet",
          "type": "address"
        },
        {
          "name": "_token",
          "type": "address"
        },
        {
          "name": "_cap",
          "type": "uint256"
        },
        {
          "name": "_openingTime",
          "type": "uint256"
        },
        {
          "name": "_closingTime",
          "type": "uint256"
        },
        {
          "name": "_goal",
          "type": "uint256"
        }
      ],
      "payable": false,
      "stateMutability": "nonpayable",
      "type": "constructor",
      "signature": "constructor"
    },
    {
      "payable": true,
      "stateMutability": "payable",
      "type": "fallback"
    },
    {
      "anonymous": false,
      "inputs": [],
      "name": "CrowdsaleFinalized",
      "type": "event",
      "signature": "0x9270cc390c096600a1c17c44345a1ba689fafd99d97487b10cfccf86cf731836"
    },
    {
      "anonymous": false,
      "inputs": [
        {
          "indexed": false,
          "name": "prevClosingTime",
          "type": "uint256"
        },
        {
          "indexed": false,
          "name": "newClosingTime",
          "type": "uint256"
        }
      ],
      "name": "TimedCrowdsaleExtended",
      "type": "event",
      "signature": "0x46711e222f558a07afd26e5e71b48ecb0a8b2cdcd40faeb1323e05e2c76a2f32"
    },
    {
      "anonymous": false,
      "inputs": [
        {
          "indexed": true,
          "name": "purchaser",
          "type": "address"
        },
        {
          "indexed": true,
          "name": "beneficiary",
          "type": "address"
        },
        {
          "indexed": false,
          "name": "value",
          "type": "uint256"
        },
        {
          "indexed": false,
          "name": "amount",
          "type": "uint256"
        }
      ],
      "name": "TokensPurchased",
      "type": "event",
      "signature": "0x6faf93231a456e552dbc9961f58d9713ee4f2e69d15f1975b050ef0911053a7b"
    }
  ],
  "bytecode": "0x608060405234801561001057600080fd5b5060405160e08062001f29833981018060405260e081101561003157600080fd5b8101908080519060200190929190805190602001909291908051906020019092919080519060200190929190805190602001909291908051906020019092919080519060200190929190505050808383868a8a8a600160008190555060008311151561009c57600080fd5b600073ffffffffffffffffffffffffffffffffffffffff168273ffffffffffffffffffffffffffffffffffffffff16141515156100d857600080fd5b600073ffffffffffffffffffffffffffffffffffffffff168173ffffffffffffffffffffffffffffffffffffffff161415151561011457600080fd5b8260038190555081600260006101000a81548173ffffffffffffffffffffffffffffffffffffffff021916908373ffffffffffffffffffffffffffffffffffffffff16021790555080600160006101000a81548173ffffffffffffffffffffffffffffffffffffffff021916908373ffffffffffffffffffffffffffffffffffffffff1602179055505050506000811115156101af57600080fd5b80600581905550504282101515156101c657600080fd5b81811115156101d457600080fd5b816006819055508060078190555050506000600860006101000a81548160ff02191690831515021790555060008111151561020e57600080fd5b6102256102d4640100000000026401000000009004565b61022d6102fe565b808273ffffffffffffffffffffffffffffffffffffffff1673ffffffffffffffffffffffffffffffffffffffff168152602001915050604051809103906000f08015801561027f573d6000803e3d6000fd5b50600a60006101000a81548173ffffffffffffffffffffffffffffffffffffffff021916908373ffffffffffffffffffffffffffffffffffffffff16021790555080600981905550505050505050505061030f565b6000600260009054906101000a900473ffffffffffffffffffffffffffffffffffffffff16905090565b604051610d7e80620011ab83390190565b610e8c806200031f6000396000f3fe608060405260043610610110576000357c0100000000000000000000000000000000000000000000000000000000900480634f935945116100a7578063b7a8807c11610076578063b7a8807c1461034b578063bffa55d514610376578063ec8ac4d8146103c7578063fc0c546a1461040b57610110565b80634f93594514610267578063521eb273146102965780637d3d6522146102ed578063b3f05b971461031c57610110565b80634042b66f116100e35780634042b66f146101cb57806347535d7b146101f65780634b6753bc146102255780634bb278f31461025057610110565b80631515bc2b1461011b5780632c4e722e1461014a578063355274ea1461017557806340193883146101a0575b61011933610462565b005b34801561012757600080fd5b50610130610558565b604051808215151515815260200191505060405180910390f35b34801561015657600080fd5b5061015f610564565b6040518082815260200191505060405180910390f35b34801561018157600080fd5b5061018a61056e565b6040518082815260200191505060405180910390f35b3480156101ac57600080fd5b506101b5610578565b6040518082815260200191505060405180910390f35b3480156101d757600080fd5b506101e0610582565b6040518082815260200191505060405180910390f35b34801561020257600080fd5b5061020b61058c565b604051808215151515815260200191505060405180910390f35b34801561023157600080fd5b5061023a6105a7565b6040518082815260200191505060405180910390f35b34801561025c57600080fd5b506102656105b1565b005b34801561027357600080fd5b5061027c610631565b604051808215151515815260200191505060405180910390f35b3480156102a257600080fd5b506102ab610645565b604051808273ffffffffffffffffffffffffffffffffffffffff1673ffffffffffffffffffffffffffffffffffffffff16815260200191505060405180910390f35b3480156102f957600080fd5b5061030261066f565b604051808215151515815260200191505060405180910390f35b34801561032857600080fd5b50610331610683565b604051808215151515815260200191505060405180910390f35b34801561035757600080fd5b5061036061069a565b6040518082815260200191505060405180910390f35b34801561038257600080fd5b506103c56004803603602081101561039957600080fd5b81019080803573ffffffffffffffffffffffffffffffffffffffff1690602001909291905050506106a4565b005b610409600480360360208110156103dd57600080fd5b81019080803573ffffffffffffffffffffffffffffffffffffffff169060200190929190505050610462565b005b34801561041757600080fd5b506104206107a3565b604051808273ffffffffffffffffffffffffffffffffffffffff1673ffffffffffffffffffffffffffffffffffffffff16815260200191505060405180910390f35b60016000808282540192505081905550600080549050600034905061048783826107cd565b6000610492826107ee565b90506104a98260045461080c90919063ffffffff16565b6004819055506104b9848261082d565b8373ffffffffffffffffffffffffffffffffffffffff163373ffffffffffffffffffffffffffffffffffffffff167f6faf93231a456e552dbc9961f58d9713ee4f2e69d15f1975b050ef0911053a7b8484604051808381526020018281526020019250505060405180910390a3610530848361083b565b61053861083f565b6105428483610917565b50506000548114151561055457600080fd5b5050565b60006007544211905090565b6000600354905090565b6000600554905090565b6000600954905090565b6000600454905090565b600060065442101580156105a257506007544211155b905090565b6000600754905090565b600860009054906101000a900460ff161515156105cd57600080fd5b6105d5610558565b15156105e057600080fd5b6001600860006101000a81548160ff02191690831515021790555061060361091b565b7f9270cc390c096600a1c17c44345a1ba689fafd99d97487b10cfccf86cf73183660405160405180910390a1565b600060055461063e610582565b1015905090565b6000600260009054906101000a900473ffffffffffffffffffffffffffffffffffffffff16905090565b600060095461067c610582565b1015905090565b6000600860009054906101000a900460ff16905090565b6000600654905090565b6106ac610683565b15156106b757600080fd5b6106bf61066f565b1515156106cb57600080fd5b600a60009054906101000a900473ffffffffffffffffffffffffffffffffffffffff1673ffffffffffffffffffffffffffffffffffffffff166351cff8d9826040518263ffffffff167c0100000000000000000000000000000000000000000000000000000000028152600401808273ffffffffffffffffffffffffffffffffffffffff1673ffffffffffffffffffffffffffffffffffffffff168152602001915050600060405180830381600087803b15801561078857600080fd5b505af115801561079c573d6000803e3d6000fd5b5050505050565b6000600160009054906101000a900473ffffffffffffffffffffffffffffffffffffffff16905090565b6107d561058c565b15156107e057600080fd5b6107ea8282610b12565b5050565b600061080560035483610b4a90919063ffffffff16565b9050919050565b600080828401905083811015151561082357600080fd5b8091505092915050565b6108378282610b88565b5050565b5050565b600a60009054906101000a900473ffffffffffffffffffffffffffffffffffffffff1673ffffffffffffffffffffffffffffffffffffffff1663f340fa0134336040518363ffffffff167c0100000000000000000000000000000000000000000000000000000000028152600401808273ffffffffffffffffffffffffffffffffffffffff1673ffffffffffffffffffffffffffffffffffffffff1681526020019150506000604051808303818588803b1580156108fc57600080fd5b505af1158015610910573d6000803e3d6000fd5b5050505050565b5050565b61092361066f565b15610a6957600a60009054906101000a900473ffffffffffffffffffffffffffffffffffffffff1673ffffffffffffffffffffffffffffffffffffffff166343d726d66040518163ffffffff167c0100000000000000000000000000000000000000000000000000000000028152600401600060405180830381600087803b1580156109ae57600080fd5b505af11580156109c2573d6000803e3d6000fd5b50505050600a60009054906101000a900473ffffffffffffffffffffffffffffffffffffffff1673ffffffffffffffffffffffffffffffffffffffff16639af6549a6040518163ffffffff167c0100000000000000000000000000000000000000000000000000000000028152600401600060405180830381600087803b158015610a4c57600080fd5b505af1158015610a60573d6000803e3d6000fd5b50505050610b08565b600a60009054906101000a900473ffffffffffffffffffffffffffffffffffffffff1673ffffffffffffffffffffffffffffffffffffffff16638c52dc416040518163ffffffff167c0100000000000000000000000000000000000000000000000000000000028152600401600060405180830381600087803b158015610aef57600080fd5b505af1158015610b03573d6000803e3d6000fd5b505050505b610b10610bd9565b565b610b1c8282610bdb565b600554610b3982610b2b610582565b61080c90919063ffffffff16565b11151515610b4657600080fd5b5050565b600080831415610b5d5760009050610b82565b60008284029050828482811515610b7057fe5b04141515610b7d57600080fd5b809150505b92915050565b610bd58282600160009054906101000a900473ffffffffffffffffffffffffffffffffffffffff1673ffffffffffffffffffffffffffffffffffffffff16610c2b9092919063ffffffff16565b5050565b565b600073ffffffffffffffffffffffffffffffffffffffff168273ffffffffffffffffffffffffffffffffffffffff1614151515610c1757600080fd5b60008114151515610c2757600080fd5b5050565b610d13838473ffffffffffffffffffffffffffffffffffffffff1663a9059cbb90507c0100000000000000000000000000000000000000000000000000000000028484604051602401808373ffffffffffffffffffffffffffffffffffffffff1673ffffffffffffffffffffffffffffffffffffffff16815260200182815260200192505050604051602081830303815290604052907bffffffffffffffffffffffffffffffffffffffffffffffffffffffff19166020820180517bffffffffffffffffffffffffffffffffffffffffffffffffffffffff8381831617835250505050610d18565b505050565b610d378273ffffffffffffffffffffffffffffffffffffffff16610e4d565b1515610d4257600080fd5b600060608373ffffffffffffffffffffffffffffffffffffffff16836040518082805190602001908083835b602083101515610d935780518252602082019150602081019050602083039250610d6e565b6001836020036101000a0380198251168184511680821785525050505050509050019150506000604051808303816000865af19150503d8060008114610df5576040519150601f19603f3d011682016040523d82523d6000602084013e610dfa565b606091505b5091509150811515610e0b57600080fd5b600081511115610e4757808060200190516020811015610e2a57600080fd5b81019080805190602001909291905050501515610e4657600080fd5b5b50505050565b600080823b90506000811191505091905056fea165627a7a72305820422dd9942d5607d23737415d9cd612eb32f6ef90c5d212e0c08ece3538a706730029608060405234801561001057600080fd5b50604051602080610d7e8339810180604052602081101561003057600080fd5b8101908080519060200190929190505050336000806101000a81548173ffffffffffffffffffffffffffffffffffffffff021916908373ffffffffffffffffffffffffffffffffffffffff1602179055507f4101e71e974f68df5e9730cc223280b41654676bbb052cdcc735c3337e64d2d96000809054906101000a900473ffffffffffffffffffffffffffffffffffffffff16604051808273ffffffffffffffffffffffffffffffffffffffff1673ffffffffffffffffffffffffffffffffffffffff16815260200191505060405180910390a1600073ffffffffffffffffffffffffffffffffffffffff168173ffffffffffffffffffffffffffffffffffffffff161415151561014157600080fd5b80600260016101000a81548173ffffffffffffffffffffffffffffffffffffffff021916908373ffffffffffffffffffffffffffffffffffffffff1602179055506000600260006101000a81548160ff021916908360028111156101a157fe5b021790555050610bc8806101b66000396000f3fe6080604052600436106100b9576000357c0100000000000000000000000000000000000000000000000000000000900480638c52dc41116100815780638c52dc41146102375780639af6549a1461024e578063c19d93fb14610265578063c6dbdf611461029e578063e3a9db1a146102f5578063f340fa011461035a576100b9565b80632348238c146100be57806338af3eed1461010f57806343d726d61461016657806351cff8d91461017d578063685ca194146101ce575b600080fd5b3480156100ca57600080fd5b5061010d600480360360208110156100e157600080fd5b81019080803573ffffffffffffffffffffffffffffffffffffffff16906020019092919050505061039e565b005b34801561011b57600080fd5b506101246104fc565b604051808273ffffffffffffffffffffffffffffffffffffffff1673ffffffffffffffffffffffffffffffffffffffff16815260200191505060405180910390f35b34801561017257600080fd5b5061017b610526565b005b34801561018957600080fd5b506101cc600480360360208110156101a057600080fd5b81019080803573ffffffffffffffffffffffffffffffffffffffff169060200190929190505050610606565b005b3480156101da57600080fd5b5061021d600480360360208110156101f157600080fd5b81019080803573ffffffffffffffffffffffffffffffffffffffff169060200190929190505050610626565b604051808215151515815260200191505060405180910390f35b34801561024357600080fd5b5061024c610658565b005b34801561025a57600080fd5b50610263610739565b005b34801561027157600080fd5b5061027a6107ee565b6040518082600281111561028a57fe5b60ff16815260200191505060405180910390f35b3480156102aa57600080fd5b506102b3610805565b604051808273ffffffffffffffffffffffffffffffffffffffff1673ffffffffffffffffffffffffffffffffffffffff16815260200191505060405180910390f35b34801561030157600080fd5b506103446004803603602081101561031857600080fd5b81019080803573ffffffffffffffffffffffffffffffffffffffff16906020019092919050505061082e565b6040518082815260200191505060405180910390f35b61039c6004803603602081101561037057600080fd5b81019080803573ffffffffffffffffffffffffffffffffffffffff169060200190929190505050610877565b005b6000809054906101000a900473ffffffffffffffffffffffffffffffffffffffff1673ffffffffffffffffffffffffffffffffffffffff163373ffffffffffffffffffffffffffffffffffffffff161415156103f957600080fd5b600073ffffffffffffffffffffffffffffffffffffffff168173ffffffffffffffffffffffffffffffffffffffff161415151561043557600080fd5b806000806101000a81548173ffffffffffffffffffffffffffffffffffffffff021916908373ffffffffffffffffffffffffffffffffffffffff1602179055507f4101e71e974f68df5e9730cc223280b41654676bbb052cdcc735c3337e64d2d96000809054906101000a900473ffffffffffffffffffffffffffffffffffffffff16604051808273ffffffffffffffffffffffffffffffffffffffff1673ffffffffffffffffffffffffffffffffffffffff16815260200191505060405180910390a150565b6000600260019054906101000a900473ffffffffffffffffffffffffffffffffffffffff16905090565b6000809054906101000a900473ffffffffffffffffffffffffffffffffffffffff1673ffffffffffffffffffffffffffffffffffffffff163373ffffffffffffffffffffffffffffffffffffffff1614151561058157600080fd5b6000600281111561058e57fe5b600260009054906101000a900460ff1660028111156105a957fe5b1415156105b557600080fd5b60028060006101000a81548160ff021916908360028111156105d357fe5b02179055507f088672c3a6e342f7cd94a65ba63b79df24a8973927b4d05d803c44bbf787d12f60405160405180910390a1565b61060f81610626565b151561061a57600080fd5b610623816108b7565b50565b60006001600281111561063557fe5b600260009054906101000a900460ff16600281111561065057fe5b149050919050565b6000809054906101000a900473ffffffffffffffffffffffffffffffffffffffff1673ffffffffffffffffffffffffffffffffffffffff163373ffffffffffffffffffffffffffffffffffffffff161415156106b357600080fd5b600060028111156106c057fe5b600260009054906101000a900460ff1660028111156106db57fe5b1415156106e757600080fd5b6001600260006101000a81548160ff0219169083600281111561070657fe5b02179055507f599d8e5a83cffb867d051598c4d70e805d59802d8081c1c7d6dffc5b6aca2b8960405160405180910390a1565b60028081111561074557fe5b600260009054906101000a900460ff16600281111561076057fe5b14151561076c57600080fd5b600260019054906101000a900473ffffffffffffffffffffffffffffffffffffffff1673ffffffffffffffffffffffffffffffffffffffff166108fc3073ffffffffffffffffffffffffffffffffffffffff16319081150290604051600060405180830381858888f193505050501580156107eb573d6000803e3d6000fd5b50565b6000600260009054906101000a900460ff16905090565b60008060009054906101000a900473ffffffffffffffffffffffffffffffffffffffff16905090565b6000600160008373ffffffffffffffffffffffffffffffffffffffff1673ffffffffffffffffffffffffffffffffffffffff168152602001908152602001600020549050919050565b6000600281111561088457fe5b600260009054906101000a900460ff16600281111561089f57fe5b1415156108ab57600080fd5b6108b481610a34565b50565b6000809054906101000a900473ffffffffffffffffffffffffffffffffffffffff1673ffffffffffffffffffffffffffffffffffffffff163373ffffffffffffffffffffffffffffffffffffffff1614151561091257600080fd5b6000600160008373ffffffffffffffffffffffffffffffffffffffff1673ffffffffffffffffffffffffffffffffffffffff1681526020019081526020016000205490506000600160008473ffffffffffffffffffffffffffffffffffffffff1673ffffffffffffffffffffffffffffffffffffffff168152602001908152602001600020819055508173ffffffffffffffffffffffffffffffffffffffff166108fc829081150290604051600060405180830381858888f193505050501580156109e1573d6000803e3d6000fd5b508173ffffffffffffffffffffffffffffffffffffffff167f7084f5476618d8e60b11ef0d7d3f06914655adb8793e28ff7f018d4c76d505d5826040518082815260200191505060405180910390a25050565b6000809054906101000a900473ffffffffffffffffffffffffffffffffffffffff1673ffffffffffffffffffffffffffffffffffffffff163373ffffffffffffffffffffffffffffffffffffffff16141515610a8f57600080fd5b6000349050610ae681600160008573ffffffffffffffffffffffffffffffffffffffff1673ffffffffffffffffffffffffffffffffffffffff16815260200190815260200160002054610b7b90919063ffffffff16565b600160008473ffffffffffffffffffffffffffffffffffffffff1673ffffffffffffffffffffffffffffffffffffffff168152602001908152602001600020819055508173ffffffffffffffffffffffffffffffffffffffff167f2da466a7b24304f47e87fa2e1e5a81b9831ce54fec19055ce277ca2f39ba42c4826040518082815260200191505060405180910390a25050565b6000808284019050838110151515610b9257600080fd5b809150509291505056fea165627a7a72305820b1d23dff87610b705f56549b2bccb20c710f5e8b8cbac5d50452aa5affad767a0029",
  "source": "pragma solidity ^0.5.2;\n\nimport \"../node_modules/openzeppelin-solidity/contracts/crowdsale/Crowdsale.sol\";\nimport \"../node_modules/openzeppelin-solidity/contracts/crowdsale/distribution/RefundableCrowdsale.sol\";\nimport \"../node_modules/openzeppelin-solidity/contracts/crowdsale/validation/CappedCrowdsale.sol\";\n/* import \"../node_modules/openzeppelin-solidity/contracts/crowdsale/validation/IndividuallyCappedCrowdsale.sol\"; */\nimport \"../node_modules/openzeppelin-solidity/contracts/crowdsale/validation/TimedCrowdsale.sol\";\n\n\n/* Crowdsale, TimedCrowdsale, RefundableCrowdsale, CappedCrowdsale, IndividuallyCappedCrowdsale */\n\ncontract ICOcontract is Crowdsale, CappedCrowdsale, TimedCrowdsale, RefundableCrowdsale{\n\n    constructor(\n        uint _rate, address payable _wallet, IERC20 _token, uint _cap, uint _openingTime, uint _closingTime, uint _goal\n    )\n    Crowdsale(\n        _rate, _wallet, _token\n    )\n    CappedCrowdsale(\n        _cap\n    )\n    RefundableCrowdsale(\n       _goal\n   )\n    TimedCrowdsale(\n        _openingTime, _closingTime\n    )\n    public\n    {\n\n    }\n\n\n}\n",
  "sourcePath": "/Users/akira/ethereum/dapps/ICOcontract/contracts/ICOcontract.sol",
  "compiler": {
    "name": "solc",
    "version": "0.5.2+commit.1df8f40c.Emscripten.clang"
  },
  "schemaVersion": "3.0.2",
  "updatedAt": "2019-05-02T00:34:53.118Z",
  "devdoc": {
    "methods": {
      "buyTokens(address)": {
        "details": "low level token purchase ***DO NOT OVERRIDE*** This function has a non-reentrancy guard, so it shouldn't be called by another `nonReentrant` function.",
        "params": {
          "beneficiary": "Recipient of the token purchase"
        }
      },
      "cap()": {
        "return": "the cap of the crowdsale."
      },
      "capReached()": {
        "details": "Checks whether the cap has been reached.",
        "return": "Whether the cap was reached"
      },
      "claimRefund(address)": {
        "details": "Investors can claim refunds here if crowdsale is unsuccessful",
        "params": {
          "refundee": "Whose refund will be claimed."
        }
      },
      "closingTime()": {
        "return": "the crowdsale closing time."
      },
      "finalize()": {
        "details": "Must be called after crowdsale ends, to do some extra finalization work. Calls the contract's finalization function."
      },
      "finalized()": {
        "return": "true if the crowdsale is finalized, false otherwise."
      },
      "goal()": {
        "return": "minimum amount of funds to be raised in wei."
      },
      "goalReached()": {
        "details": "Checks whether funding goal was reached.",
        "return": "Whether funding goal was reached"
      },
      "hasClosed()": {
        "details": "Checks whether the period in which the crowdsale is open has already elapsed.",
        "return": "Whether crowdsale period has elapsed"
      },
      "isOpen()": {
        "return": "true if the crowdsale is open, false otherwise."
      },
      "openingTime()": {
        "return": "the crowdsale opening time."
      },
      "rate()": {
        "return": "the number of token units a buyer gets per wei."
      },
      "token()": {
        "return": "the token being sold."
      },
      "wallet()": {
        "return": "the address where funds are collected."
      },
      "weiRaised()": {
        "return": "the amount of wei raised."
      }
    }
  },
  "userdoc": {
    "methods": {}
  }
}